:100000000C9434000C9451000C9451000C94510049
:100010000C9451000C9451000C9451000C94340237
:100020000C9451000C9451000C9451000C9451000C
:100030000C9451000C9451000C9451000C945100FC
:100040000C9451000C9451000C9451000C945100EC
:100050000C9451000C9451000C9451000C945100DC
:100060000C9451000C94510011241FBECFEFD8E026
:10007000DEBFCDBF11E0A0E0B1E0E6EEF5E002C0EA
:1000800005900D92A232B107D9F721E0A2E2B1E0CA
:1000900001C01D92A932B207E1F70E94A1020C949F
:1000A000F1020C940000882329F0409A80E092E04D
:1000B0000C94F1014098FACF419A80E092E00E94BE
:1000C000F101419880E092E00C94F101429A80E0C5
:1000D00092E00E94F101429880E092E00C94F101DC
:1000E000CF92DF92FF920F931F93CF93DF93F82E5F
:1000F0008B01D0E0C0E0CC24C394D12CC017D10731
:1001000049F4DF91CF911F910F91FF90DF90CF9035
:100110000C946600C6010C2E01C0880F0A94EAF701
:100120008F210E9453000E945C002196E7CFCF935D
:10013000DF93FC01DB018C91C081D181209719F004
:100140009881981748F41396DC93CE931297B18355
:10015000A083DF91CF910895FE013296EDCF0F93EA
:100160001F93CF93DF9380912401909125010196F5
:100170009093250180932401C0912601D0912701FD
:10018000209759F4C0910001D0910101209741F5C9
:10019000DF91CF911F910F9108958C819D810197DF
:1001A0009D838C8304E010E08C819D81892B51F725
:1001B000E0912601F091270182819381909327019C
:1001C00080932601BE0180E091E00E9497001D838C
:1001D0000C83C0912601D0912701209729F7D2CF17
:1001E0008C819D8101979D838C83892B89F68A81DF
:1001F0009B819093010180930001BE0180E091E01A
:100200000E94970084E090E09D838C83C1CFCF93C0
:10021000DF9300D0CDB7DEB720910201309103010A
:100220003A832983C90106960E94B002E4E6F0E011
:1002300021E037E0892BA1F00F900F90DF91CF9153
:100240000895808180648F3EF9F400B607FE1CC0DB
:1002500080912301811118C033BF78948895F89458
:100260008091000190910101009759F329813A8111
:100270008217930709F3909303018093020161E0D1
:1002800070E006960E94D00223BFE7CF982F80919E
:100290002301909323010895CF93DF93CDB7DEB769
:1002A0008091220181111DC0809102019091030172
:1002B00020910001309101012817390791F006962D
:1002C0000E94B002892B69F4809100019091010194
:1002D000909303018093020161E070E006960E9412
:1002E000D002DF91CF910895F894E0910201F0914E
:1002F000030181818150818381110CC0E091000153
:10030000F09101018281938190930101809300011A
:100310000E94070178940895CF93DF93EC01F8943D
:1003200089818F5F8983813059F4BE0180E091E03B
:100330000E94970084E090E09D838C830E944C0192
:100340007894DF91CF910895FC01F894808118167C
:1003500024F4815080837894089560910201709113
:100360000301A0910001B091010112968D919C9121
:100370009093010180930001CF0101960E949700A4
:100380000E940701E8CFFC01F894908181E01916E2
:100390000CF080E0191614F491509083789408952D
:1003A000CF93DF93FC01F8948081811117C0C18144
:1003B000D281209799F08A819B8192838183BE01AB
:1003C00080E091E00E94970084E090E09D838C8320
:1003D0000E944C017894DF91CF9108958F5F8083C4
:1003E000F9CFCF93DF939C01C0910201D09103011B
:1003F000F894E0912601F0912701A6E2B1E0892B63
:1004000059F47894DF91CF910895281B390BDF01BF
:1004100012960280F381E02D309749F08481958116
:100420002817390790F7821B930B95838483E091FB
:100430000001F091010182819381909301018093E9
:1004400000013D832C838D919C9111979B838A831E
:10045000CD93DC930E940701D4CFF89480912401BE
:1004600090912501789408951F920F920FB60F92E4
:1004700011242F933F934F935F936F937F938F93A9
:100480009F93AF93BF93EF93FF938FEA90E00E9407
:100490009002FF91EF91BF91AF919F918F917F91CA
:1004A0006F915F914F913F912F910F900FBE0F90E1
:1004B0001F901895E1E6F0E080E88083108214B880
:1004C0008FEF85B917B888B91AB88BB995B79F7EE1
:1004D00095BF95B7906695BF95B7906495BF94B753
:1004E000977F94BFE0E6F0E090819861908310825E
:1004F000E4E6F0E09FEE908390B7906890BF908123
:100500009F7B908397E09093B1009093B30092E02B
:10051000909370009093B0008093B2007894089507
:1005200021E020932201FC01099510922201809183
:10053000000190910101892B11F00E944C0113BE22
:1005400008950E945A028FE387B981E084B918B8F0
:1005500064E070E08DE00E94700090E080E008951B
:10056000DC012D923D924D925D926D927D928D9225
:100570009D92AD92BD92CD92DD92ED92FD920D9342
:100580001D93CD93DD93FF91EF918DB78D938EB732
:100590008D938FB78D93ED93FD93882799270994B9
:1005A000DC01CB0181309105811D2D903D904D9056
:1005B0005D906D907D908D909D90AD90BD90CD9013
:1005C000DD90ED90FD900D911D91CD91DD91ED911E
:1005D000FD910D90F894FEBF0FBEEDBFED91FD9122
:0605E0000994F894FFCF1E
:1005E600040104010A0100000000000000000000F0
:1005F600000000000000000000000000280180004C
:020606000000F2
:00000001FF
