:200000000C9434000C9451000C9451000C9451000C9451000C9451000C9451000C94510075
:200020000C9451000C9451000C9451000C9451000C9451000C9451000C9474020C94510013
:200040000C9451000C9451000C9451000C9451000C9451000C9451000C9451000C94510018
:200060000C9451000C94510011241FBECFEFD8E0DEBFCDBF11E0A0E0B1E0E2E5F7E002C08B
:2000800005900D92A834B107D9F721E0A8E4B1E001C01D92A23AB207E1F70E94F8020C9491
:2000A000A7030C94000025B1962F92959E70217F922B95B998B1907F6F70692B68B998B146
:2000C0009F7C811104C080E2892B88B9089580E1FBCFC0E4D0E000E014E080E4E82EFF24CB
:2000E000F394609150017091510181E00E945300C801BE010E943E03CB010E949A02609128
:200100004E0170914F0180E00E945300C801B7016C1B7D0B0E943E03CB010E949A02C11597
:2001200081E0D80711F4C0E4D0E02196DACFDB013C91DC01ED91FC91309719F0208123178A
:2001400048F4DB011396FC93EE931297FC01718360830895CF010296ECCF0F931F93CF93DB
:20016000DF938091490190914A01019690934A0180934901C0914B01D0914C01209759F495
:20018000C0910A01D0910B01209741F5DF91CF911F910F9108958C819D8101979D838C83FA
:2001A00004E010E08C819D81892B51F7E0914B01F0914C018281938190934C0180934B01D3
:2001C000BE018AE091E00E9497001D830C83C0914B01D0914C01209729F7D2CF8C819D812F
:2001E00001979D838C83892B89F68A819B8190930B0180930A01BE018AE091E00E949700BE
:2002000084E090E09D838C83C1CFCF93DF9300D0CDB7DEB720910C0130910D013A83298398
:20022000C90106960E946603892B41F00F900F90DF91CF91089578948895F89480910A01EC
:2002400090910B010097B9F329813A812817390769F390930D0180930C0161E070E0069670
:200260000E948603CF93DF93CDB7DEB78091480181111DC080910C0190910D0120910A0194
:2002800030910B012817390791F006960E946603892B69F480910A0190910B0190930D015F
:2002A00080930C0161E070E006960E948603DF91CF910895F894E0910C01F0910D018181BE
:2002C0008150818381110CC0E0910A01F0910B018281938190930B0180930A010E940501D6
:2002E00078940895CF93DF93EC01F89489818F5F8983813059F4BE018AE091E00E94970033
:2003000084E090E09D838C830E9432017894DF91CF910895FC01F8949081191624F49150CA
:2003200090837894089560910C0170910D01A0910A01B0910B0112968D919C9113979093AB
:200340000B0180930A01CF0101960E9497000E940501E7CFFC01F894908181E019160CF04F
:2003600080E0191614F49150908378940895CF93DF93FC01F8948081811117C0C181D281ED
:20038000209799F08A819B8192838183BE018AE091E00E94970084E090E09D838C830E9465
:2003A00032017894DF91CF9108958F5F8083F9CF0F931F93CF93DF938C01EB0103960E94FC
:2003C0008A01F894D8011196EC91119781E08E0F11968C93119712968C91E823F0E0EE0F58
:2003E000FF1FE00FF11FD287C1877894C8010696DF91CF911F910F910C94B7010F931F9302
:20040000CF93DF938C01EB0103960E94AA018823D1F0F894D8011196EC91119781E08E0F0E
:2004200011968C93119712968C91E823F0E0EE0FFF1FE00FF11FD287C1877894C801069682
:200440000E94B70181E0DF91CF911F910F9108950F931F93CF93DF938C01EB0106960E9445
:200460008A01F894D801EC9181E08E0F8C9312968C91E823F0E0EE0FFF1FE00FF11F818532
:200480009285998388837894C8010396DF91CF911F910F910C94B7010F931F93CF93DF9310
:2004A0008C01EB0106960E94AA018823C1F0F894D801EC9181E08E0F8C9312968C91E823AF
:2004C000F0E0EE0FFF1FE00FF11F81859285998388837894C80103960E94B70181E0DF9155
:2004E000CF911F910F9108951F920F920FB60F9211242F933F934F935F936F937F938F9324
:200500009F93AF93BF93EF93FF938DEA90E00E94E802FF91EF91BF91AF919F918F917F918E
:200520006F915F914F913F912F910F900FBE0F901F901895CF93DF93C0910C01D0910D0153
:200540000196F894E0914B01F0914C01ABE4B1E0309749F02481358182179307E8F4281B20
:20056000390B35832483E0910A01F0910B012281338130930B0120930A019D838C838D919E
:200580009C9111979B838A83CD93DC930E9405017894DF91CF910895821B930BDF011296A8
:2005A0000280F381E02DD4CFF8948091490190914A017894089583E085BD82E080936E0011
:2005C00090EE97BD84BD8FEC809364007894089521E020934801FC010995109248018091D9
:2005E0000A0190910B01892B11F00C94320108950E94DB0287B1806387B987B18F6087B95D
:2006000084B18E6084B9C0E0D0E08AE0F82E04E610E085E591E00E949A028C2F6F2D0E94AE
:200620003203E92F0E943203A92FB0E0A050BF4F8C9190E080959095909351018093500190
:20064000F0E0E050FF4F808190E08095909590934F0180934E01CE010196B8010E943E03CA
:20066000EC01D7CF991B79E004C0991F961708F0961B881F7A95C9F78095089597FB072E19
:2006800016F4009407D077FD09D00E94520307FC05D03EF4909581959F4F089570956195D6
:2006A0007F4F0895AA1BBB1B51E107C0AA1FBB1FA617B70710F0A61BB70B881F991F5A954C
:2006C000A9F780959095BC01CD010895DC012D923D924D925D926D927D928D929D92AD9244
:2006E000BD92CD92DD92ED92FD920D931D93CD93DD93FF91EF918DB78D938EB78D938FB790
:200700008D93ED93FD93882799270994DC01CB0181309105811D2D903D904D905D906D90BE
:200720007D908D909D90AD90BD90CD90DD90ED90FD900D911D91CD91DD91ED91FD910D9043
:20074000F894FEBF0FBEEDBFED91FD910994F894FFCFED216E67A3C7CF61EFE70E010E0163
:2007600000012B0100000000000000000000000000000000000000004D018000000A010073
:20078000000000000000000000000000000000000000000000A101806900FFFFFFFFFFFFD4
:2007A000FFFFFFFFFFFFFFFFFFFFFFFFFFFFFFFFFFFFFFFFFFFFFFFFFFFFFFFFFFFFFFFF59
:2007C000FFFFFFFFFFFFFFFFFFFFFFFFFFFFFFFFFFFFFFFFFFFFFFFFFFFFFFFFFFFFFFFF39
:2007E000FFFFFFFFFFFFFFFFFFFFFFFFFFFFFFFFFFFFFFFFFFFFFFFFFFFFFFFFFFFFFFFF19
:20080000FFFFFFFFFFFFFFFFFFFFFFFFFFFFFFFFFFFFFFFFFFFFFFFFFFFFFFFFFFFFFFFFF8
:207800000C94343C0C94513C0C94513C0C94513C0C94513C0C94513C0C94513C0C94513C1D
:207820000C94513C0C94513C0C94513C0C94513C0C94513C0C94513C0C94513C0C94513CE0
:207840000C94513C0C94513C0C94513C0C94513C0C94513C0C94513C0C94513C0C94513CC0
:207860000C94513C0C94513C11241FBECFEFD8E0DEBFCDBF11E0A0E0B1E0E6E0FCE702C090
:2078800005900D92A630B107D9F711E0A6E0B1E001C01D92AC30B107E1F70E946E3C0C9486
:2078A000013E0C94003C982F8091C00085FFFCCF9093C60008958091C00087FFFCCF80910D
:2078C000C600089585B1817085B981E085BF15BEE0910601F0910701099508954F925F925A
:2078E0006F927F928F929F92AF92BF92CF92DF92EF92FF920F931F93CF93DF9304B603FECB
:2079000006C0E0910601F0910701099508C088E10FB6F89480936000109260000FBE10929C
:20792000C50087E08093C40086E08093C20088E18093C10082E60E94533C2098289A8FEF3B
:207940008A95F1F7189B05C081E60E94533C0E94623C80E70E94533C53E0752E66246394E1
:2079600045E0542E31E1432E0E945B3C863509F47AC08735C8F48C3409F4FBC08D3450F4BD
:20798000823409F482C0853409F4F3C0813409F034C128C0833509F45DC0843509F44AC06C
:2079A000803509F02AC1E5C0853669F1863648F48136B1F0823609F460C0883509F01DC1BB
:2079C00059C0803709F454C0813720F4873609F014C1D1C0833789F1843709F00EC135C032
:2079E00089E50CC10E945B3C182F0E945B3CB12EAA2490E08A299B299093090180930801B6
:207A0000880F991F12C080E090E00BC007B600FCFDCFF999FECFFC0170925700E89580581B
:207A20009F4F28E78030920788F390930B0180930A019FC00E945B3C9CC08FE00E94533CA4
:207A400085E90E94533C8EE1D9C085E30E94533C80E0D4C0C0E0D1E003C00E94533C2196F6
:207A600088818823D1F780E30E94533C82E3C6C083E5C4C00E94623C7CC089E50E94533C04
:207A800080E00E94533C80E8B9C00E945B3C0E945B3C082F813808F0B0C00E945B3C8634B7
:207AA00009F048C080910A0190910B018150984718F080E00E94533CC0900A01D0900B016C
:207AC00007B600FCFDCFE02EE694E601FF2412C00E945B3C082F0E945B3C982E882410E0B2
:207AE000082919290801FE0160925700E89511242296F394FE1460F32E2D30E0220F331F7E
:207B00002C0D3D1D07B600FCFDCFF999FECF80910A0190910B01FC0150925700E89507B635
:207B200000FCFDCF40925700E89530930B0120930A011FC0853409F060C010E018C00E942F
:207B40005B3C2091080130910901F999FECF1FBA32BD21BD80BD0FB6F894FA9AF99A0FBE82
:207B60002F5F3F4F30930901209308011F5F101730F38DE043C00E945B3C0E945B3CE82EA0
:207B80000E945B3C8634E1F4FF2417C0E0910A01F0910B0105911491802F0E94533C812F4F
:207BA0000E94533C80910A0190910B01029690930B0180930A0182E0F80EFE1438F3D4CE1F
:207BC0008534D9F410E016C08091080190910901F999FECF92BD81BDF89A80B50E94533C30
:207BE0008091080190910901019690930901809308011F5F1E1540F3B7CE8FE30E94533C54
:0C7C0000B3CEF894FFCF46444C20760031
:00000001FF
